{
  "_format": "hh-sol-artifact-1",
  "contractName": "AgriculturalReputation",
  "sourceName": "contracts/AgriculturalReputation.sol",
  "abi": [
    {
      "inputs": [],
      "stateMutability": "nonpayable",
      "type": "constructor"
    },
    {
      "anonymous": false,
      "inputs": [
        {
          "indexed": true,
          "internalType": "address",
          "name": "farmer",
          "type": "address"
        },
        {
          "indexed": false,
          "internalType": "string",
          "name": "certification",
          "type": "string"
        },
        {
          "indexed": false,
          "internalType": "uint256",
          "name": "timestamp",
          "type": "uint256"
        }
      ],
      "name": "CertificationAdded",
      "type": "event"
    },
    {
      "anonymous": false,
      "inputs": [
        {
          "indexed": true,
          "internalType": "address",
          "name": "farmer",
          "type": "address"
        },
        {
          "indexed": false,
          "internalType": "string",
          "name": "docHash",
          "type": "string"
        },
        {
          "indexed": false,
          "internalType": "string",
          "name": "docType",
          "type": "string"
        },
        {
          "indexed": false,
          "internalType": "uint256",
          "name": "timestamp",
          "type": "uint256"
        }
      ],
      "name": "DocumentRegistered",
      "type": "event"
    },
    {
      "anonymous": false,
      "inputs": [
        {
          "indexed": true,
          "internalType": "address",
          "name": "farmer",
          "type": "address"
        },
        {
          "indexed": false,
          "internalType": "string",
          "name": "farmerId",
          "type": "string"
        },
        {
          "indexed": false,
          "internalType": "uint256",
          "name": "timestamp",
          "type": "uint256"
        }
      ],
      "name": "FarmerRegistered",
      "type": "event"
    },
    {
      "anonymous": false,
      "inputs": [
        {
          "indexed": true,
          "internalType": "address",
          "name": "farmer",
          "type": "address"
        },
        {
          "indexed": false,
          "internalType": "uint256",
          "name": "oldScore",
          "type": "uint256"
        },
        {
          "indexed": false,
          "internalType": "uint256",
          "name": "newScore",
          "type": "uint256"
        },
        {
          "indexed": false,
          "internalType": "uint256",
          "name": "timestamp",
          "type": "uint256"
        }
      ],
      "name": "ReputationUpdated",
      "type": "event"
    },
    {
      "anonymous": false,
      "inputs": [
        {
          "indexed": true,
          "internalType": "address",
          "name": "farmer",
          "type": "address"
        },
        {
          "indexed": false,
          "internalType": "uint256",
          "name": "step",
          "type": "uint256"
        },
        {
          "indexed": false,
          "internalType": "bool",
          "name": "status",
          "type": "bool"
        },
        {
          "indexed": false,
          "internalType": "address",
          "name": "verifiedBy",
          "type": "address"
        },
        {
          "indexed": false,
          "internalType": "uint256",
          "name": "timestamp",
          "type": "uint256"
        }
      ],
      "name": "VerificationLogged",
      "type": "event"
    },
    {
      "anonymous": false,
      "inputs": [
        {
          "indexed": true,
          "internalType": "address",
          "name": "farmer",
          "type": "address"
        },
        {
          "indexed": false,
          "internalType": "uint256",
          "name": "amount",
          "type": "uint256"
        },
        {
          "indexed": false,
          "internalType": "string",
          "name": "action",
          "type": "string"
        },
        {
          "indexed": false,
          "internalType": "uint256",
          "name": "timestamp",
          "type": "uint256"
        }
      ],
      "name": "X402PaymentExecuted",
      "type": "event"
    },
    {
      "inputs": [],
      "name": "POLYGON_CHAIN_ID",
      "outputs": [
        {
          "internalType": "uint256",
          "name": "",
          "type": "uint256"
        }
      ],
      "stateMutability": "view",
      "type": "function"
    },
    {
      "inputs": [
        {
          "internalType": "address",
          "name": "_farmerAddress",
          "type": "address"
        },
        {
          "internalType": "string",
          "name": "_certification",
          "type": "string"
        }
      ],
      "name": "addCertification",
      "outputs": [],
      "stateMutability": "nonpayable",
      "type": "function"
    },
    {
      "inputs": [
        {
          "internalType": "address",
          "name": "",
          "type": "address"
        },
        {
          "internalType": "uint256",
          "name": "",
          "type": "uint256"
        }
      ],
      "name": "certifications",
      "outputs": [
        {
          "internalType": "string",
          "name": "",
          "type": "string"
        }
      ],
      "stateMutability": "view",
      "type": "function"
    },
    {
      "inputs": [
        {
          "internalType": "address",
          "name": "",
          "type": "address"
        },
        {
          "internalType": "uint256",
          "name": "",
          "type": "uint256"
        }
      ],
      "name": "farmerDocuments",
      "outputs": [
        {
          "internalType": "string",
          "name": "docHash",
          "type": "string"
        },
        {
          "internalType": "string",
          "name": "docType",
          "type": "string"
        },
        {
          "internalType": "uint256",
          "name": "timestamp",
          "type": "uint256"
        },
        {
          "internalType": "bool",
          "name": "isValidated",
          "type": "bool"
        },
        {
          "internalType": "address",
          "name": "validatedBy",
          "type": "address"
        }
      ],
      "stateMutability": "view",
      "type": "function"
    },
    {
      "inputs": [
        {
          "internalType": "address",
          "name": "",
          "type": "address"
        },
        {
          "internalType": "uint256",
          "name": "",
          "type": "uint256"
        }
      ],
      "name": "farmerVerifications",
      "outputs": [
        {
          "internalType": "uint256",
          "name": "step",
          "type": "uint256"
        },
        {
          "internalType": "bool",
          "name": "status",
          "type": "bool"
        },
        {
          "internalType": "uint256",
          "name": "timestamp",
          "type": "uint256"
        },
        {
          "internalType": "address",
          "name": "verifiedBy",
          "type": "address"
        },
        {
          "internalType": "string",
          "name": "details",
          "type": "string"
        }
      ],
      "stateMutability": "view",
      "type": "function"
    },
    {
      "inputs": [
        {
          "internalType": "address",
          "name": "",
          "type": "address"
        }
      ],
      "name": "farmers",
      "outputs": [
        {
          "internalType": "address",
          "name": "farmerAddress",
          "type": "address"
        },
        {
          "internalType": "string",
          "name": "farmerId",
          "type": "string"
        },
        {
          "internalType": "uint256",
          "name": "reputationScore",
          "type": "uint256"
        },
        {
          "internalType": "uint256",
          "name": "totalVerifications",
          "type": "uint256"
        },
        {
          "internalType": "uint256",
          "name": "validCertifications",
          "type": "uint256"
        },
        {
          "internalType": "bool",
          "name": "isRegistered",
          "type": "bool"
        },
        {
          "internalType": "uint256",
          "name": "registrationDate",
          "type": "uint256"
        }
      ],
      "stateMutability": "view",
      "type": "function"
    },
    {
      "inputs": [
        {
          "internalType": "address",
          "name": "_farmerAddress",
          "type": "address"
        }
      ],
      "name": "getFarmerCertifications",
      "outputs": [
        {
          "internalType": "string[]",
          "name": "certs",
          "type": "string[]"
        }
      ],
      "stateMutability": "view",
      "type": "function"
    },
    {
      "inputs": [
        {
          "internalType": "address",
          "name": "_farmerAddress",
          "type": "address"
        }
      ],
      "name": "getFarmerDocuments",
      "outputs": [
        {
          "components": [
            {
              "internalType": "string",
              "name": "docHash",
              "type": "string"
            },
            {
              "internalType": "string",
              "name": "docType",
              "type": "string"
            },
            {
              "internalType": "uint256",
              "name": "timestamp",
              "type": "uint256"
            },
            {
              "internalType": "bool",
              "name": "isValidated",
              "type": "bool"
            },
            {
              "internalType": "address",
              "name": "validatedBy",
              "type": "address"
            }
          ],
          "internalType": "struct AgriculturalReputation.Document[]",
          "name": "docs",
          "type": "tuple[]"
        }
      ],
      "stateMutability": "view",
      "type": "function"
    },
    {
      "inputs": [
        {
          "internalType": "address",
          "name": "_farmerAddress",
          "type": "address"
        }
      ],
      "name": "getFarmerInfo",
      "outputs": [
        {
          "components": [
            {
              "internalType": "address",
              "name": "farmerAddress",
              "type": "address"
            },
            {
              "internalType": "string",
              "name": "farmerId",
              "type": "string"
            },
            {
              "internalType": "uint256",
              "name": "reputationScore",
              "type": "uint256"
            },
            {
              "internalType": "uint256",
              "name": "totalVerifications",
              "type": "uint256"
            },
            {
              "internalType": "uint256",
              "name": "validCertifications",
              "type": "uint256"
            },
            {
              "internalType": "bool",
              "name": "isRegistered",
              "type": "bool"
            },
            {
              "internalType": "uint256",
              "name": "registrationDate",
              "type": "uint256"
            }
          ],
          "internalType": "struct AgriculturalReputation.Farmer",
          "name": "farmerInfo",
          "type": "tuple"
        },
        {
          "internalType": "uint256",
          "name": "docCount",
          "type": "uint256"
        },
        {
          "internalType": "uint256",
          "name": "verificationCount",
          "type": "uint256"
        }
      ],
      "stateMutability": "view",
      "type": "function"
    },
    {
      "inputs": [
        {
          "internalType": "address",
          "name": "_farmerAddress",
          "type": "address"
        }
      ],
      "name": "getFarmerVerifications",
      "outputs": [
        {
          "components": [
            {
              "internalType": "uint256",
              "name": "step",
              "type": "uint256"
            },
            {
              "internalType": "bool",
              "name": "status",
              "type": "bool"
            },
            {
              "internalType": "uint256",
              "name": "timestamp",
              "type": "uint256"
            },
            {
              "internalType": "address",
              "name": "verifiedBy",
              "type": "address"
            },
            {
              "internalType": "string",
              "name": "details",
              "type": "string"
            }
          ],
          "internalType": "struct AgriculturalReputation.Verification[]",
          "name": "verifications",
          "type": "tuple[]"
        }
      ],
      "stateMutability": "view",
      "type": "function"
    },
    {
      "inputs": [
        {
          "internalType": "address",
          "name": "_farmerAddress",
          "type": "address"
        },
        {
          "internalType": "uint256",
          "name": "_step",
          "type": "uint256"
        },
        {
          "internalType": "bool",
          "name": "_status",
          "type": "bool"
        },
        {
          "internalType": "string",
          "name": "_details",
          "type": "string"
        }
      ],
      "name": "logVerification",
      "outputs": [],
      "stateMutability": "nonpayable",
      "type": "function"
    },
    {
      "inputs": [
        {
          "internalType": "address",
          "name": "_farmerAddress",
          "type": "address"
        },
        {
          "internalType": "uint256",
          "name": "_amount",
          "type": "uint256"
        },
        {
          "internalType": "string",
          "name": "_action",
          "type": "string"
        }
      ],
      "name": "logX402Payment",
      "outputs": [],
      "stateMutability": "nonpayable",
      "type": "function"
    },
    {
      "inputs": [],
      "name": "owner",
      "outputs": [
        {
          "internalType": "address",
          "name": "",
          "type": "address"
        }
      ],
      "stateMutability": "view",
      "type": "function"
    },
    {
      "inputs": [
        {
          "internalType": "address",
          "name": "_farmerAddress",
          "type": "address"
        },
        {
          "internalType": "string",
          "name": "_docHash",
          "type": "string"
        },
        {
          "internalType": "string",
          "name": "_docType",
          "type": "string"
        }
      ],
      "name": "registerDocument",
      "outputs": [],
      "stateMutability": "nonpayable",
      "type": "function"
    },
    {
      "inputs": [
        {
          "internalType": "address",
          "name": "_farmerAddress",
          "type": "address"
        },
        {
          "internalType": "string",
          "name": "_farmerId",
          "type": "string"
        }
      ],
      "name": "registerFarmer",
      "outputs": [],
      "stateMutability": "nonpayable",
      "type": "function"
    },
    {
      "inputs": [
        {
          "internalType": "address",
          "name": "_farmerAddress",
          "type": "address"
        },
        {
          "internalType": "uint256",
          "name": "_newScore",
          "type": "uint256"
        }
      ],
      "name": "updateReputation",
      "outputs": [],
      "stateMutability": "nonpayable",
      "type": "function"
    },
    {
      "inputs": [
        {
          "internalType": "address",
          "name": "_farmerAddress",
          "type": "address"
        },
        {
          "internalType": "uint256",
          "name": "_docIndex",
          "type": "uint256"
        }
      ],
      "name": "validateDocument",
      "outputs": [],
      "stateMutability": "nonpayable",
      "type": "function"
    }
  ],
  "bytecode": "0x608060405234801561001057600080fd5b50600480546001600160a01b03191633179055611e4a806100326000396000f3fe608060405234801561001057600080fd5b506004361061010b5760003560e01c8063593c23b0116100a2578063946026c711610071578063946026c714610281578063dcee2996146102a5578063e7c951f6146102b8578063f5c91a08146102cb578063f9b3bd02146102de57600080fd5b8063593c23b0146101fd57806373bf8ac21461021057806384856bae146102325780638da5cb5b1461025657600080fd5b8063323da805116100de578063323da80514610184578063372112551461019757806338482f02146101b7578063401b2168146101d757600080fd5b80630d56b1001461011057806320eb56321461013957806326c4fa931461014f5780632855542a14610164575b600080fd5b61012361011e3660046115ce565b6102f1565b6040516101309190611636565b60405180910390f35b610141608981565b604051908152602001610130565b61016261015d366004611779565b610432565b005b6101776101723660046115ce565b6104af565b60405161013091906117d0565b610162610192366004611832565b610593565b6101aa6101a53660046115ce565b6107f0565b60405161013091906118a1565b6101ca6101c5366004611943565b6109b1565b604051610130919061196d565b6101ea6101e53660046115ce565b610a6a565b6040516101309796959493929190611980565b61016261020b366004611943565b610b3c565b61022361021e3660046115ce565b610c21565b604051610130939291906119d0565b610245610240366004611943565b610da0565b604051610130959493929190611a51565b600454610269906001600160a01b031681565b6040516001600160a01b039091168152602001610130565b61029461028f366004611943565b610f10565b604051610130959493929190611a9d565b6101626102b3366004611add565b610ffa565b6101626102c6366004611b47565b61115b565b6101626102d9366004611943565b61133d565b6101626102ec366004611b47565b611456565b6001600160a01b0381166000908152600260209081526040808320805482518185028101850190935280835260609492939192909184015b828210156104275760008481526020908190206040805160a0810182526005860290920180548352600181015460ff1615159383019390935260028301549082015260038201546001600160a01b0316606082015260048201805491929160808401919061039690611b95565b80601f01602080910402602001604051908101604052809291908181526020018280546103c290611b95565b801561040f5780601f106103e45761010080835404028352916020019161040f565b820191906000526020600020905b8154815290600101906020018083116103f257829003601f168201915b50505050508152505081526020019060010190610329565b505050509050919050565b6004546001600160a01b031633146104655760405162461bcd60e51b815260040161045c90611bcf565b60405180910390fd5b826001600160a01b03167f5cec26dbb0fc2773dd2adb2aeafc9cf44de55e15042ce0dadd524cd1cb1b90b08383426040516104a293929190611bf7565b60405180910390a2505050565b6001600160a01b0381166000908152600360209081526040808320805482518185028101850190935280835260609492939192909184015b8282101561042757838290600052602060002001805461050690611b95565b80601f016020809104026020016040519081016040528092919081815260200182805461053290611b95565b801561057f5780601f106105545761010080835404028352916020019161057f565b820191906000526020600020905b81548152906001019060200180831161056257829003601f168201915b5050505050815260200190600101906104e7565b6004546001600160a01b031633146105bd5760405162461bcd60e51b815260040161045c90611bcf565b6001600160a01b03841660009081526020819052604090206005015460ff166105f85760405162461bcd60e51b815260040161045c90611c20565b6001831015801561060a575060048311155b6106565760405162461bcd60e51b815260206004820152601960248201527f496e76616c696420766572696669636174696f6e207374657000000000000000604482015260640161045c565b6001600160a01b038481166000908152600260208181526040808420815160a081018352898152881515818501908152429382019384523360608301908152608083018a8152845460018082018755958a529690982083516005909702019586559051928501805460ff19169315159390931790925591519383019390935591516003820180546001600160a01b0319169190951617909355905190919060048201906107039082611c9e565b5050506001600160a01b038416600090815260208190526040812060030180549161072d83611d74565b91905055508115610798576001600160a01b038416600090815260208190526040902060020154606481101561079657600061076a826001611d8d565b90506064811115610779575060645b6001600160a01b0386166000908152602081905260409020600201555b505b604080518481528315156020820152338183015242606082015290516001600160a01b038616917fc2bdbca835d27a8625568fbf2d0ef93f604ab728faec14d7c242f0b01b3f02f8919081900360800190a250505050565b6001600160a01b0381166000908152600160209081526040808320805482518185028101850190935280835260609492939192909184015b8282101561042757838290600052602060002090600402016040518060a001604052908160008201805461085b90611b95565b80601f016020809104026020016040519081016040528092919081815260200182805461088790611b95565b80156108d45780601f106108a9576101008083540402835291602001916108d4565b820191906000526020600020905b8154815290600101906020018083116108b757829003601f168201915b505050505081526020016001820180546108ed90611b95565b80601f016020809104026020016040519081016040528092919081815260200182805461091990611b95565b80156109665780601f1061093b57610100808354040283529160200191610966565b820191906000526020600020905b81548152906001019060200180831161094957829003601f168201915b5050509183525050600282015460208083019190915260039092015460ff81161515604083015261010090046001600160a01b03166060909101529082526001929092019101610828565b600360205281600052604060002081815481106109cd57600080fd5b906000526020600020016000915091505080546109e990611b95565b80601f0160208091040260200160405190810160405280929190818152602001828054610a1590611b95565b8015610a625780601f10610a3757610100808354040283529160200191610a62565b820191906000526020600020905b815481529060010190602001808311610a4557829003601f168201915b505050505081565b600060208190529081526040902080546001820180546001600160a01b039092169291610a9690611b95565b80601f0160208091040260200160405190810160405280929190818152602001828054610ac290611b95565b8015610b0f5780601f10610ae457610100808354040283529160200191610b0f565b820191906000526020600020905b815481529060010190602001808311610af257829003601f168201915b505050506002830154600384015460048501546005860154600690960154949592949193509160ff169087565b6004546001600160a01b03163314610b665760405162461bcd60e51b815260040161045c90611bcf565b6001600160a01b0382166000908152600160205260409020548110610bc65760405162461bcd60e51b8152602060048201526016602482015275092dcecc2d8d2c840c8dec6eadacadce840d2dcc8caf60531b604482015260640161045c565b6001600160a01b0382166000908152600160205260408120805483908110610bf057610bf0611da6565b60009182526020909120600360049092020101805433610100026001600160a81b0319909116176001179055505050565b610c6c6040518060e0016040528060006001600160a01b0316815260200160608152602001600081526020016000815260200160008152602001600015158152602001600081525090565b6001600160a01b03808316600090815260208181526040808320815160e081019092528054909416815260018401805493948594929390929084019190610cb290611b95565b80601f0160208091040260200160405190810160405280929190818152602001828054610cde90611b95565b8015610d2b5780601f10610d0057610100808354040283529160200191610d2b565b820191906000526020600020905b815481529060010190602001808311610d0e57829003601f168201915b5050509183525050600282810154602080840191909152600384015460408085019190915260048501546060850152600585015460ff161515608085015260069094015460a0909301929092526001600160a01b03909716600090815260018252828120549790915220549095909350915050565b60016020528160005260406000208181548110610dbc57600080fd5b906000526020600020906004020160009150915050806000018054610de090611b95565b80601f0160208091040260200160405190810160405280929190818152602001828054610e0c90611b95565b8015610e595780601f10610e2e57610100808354040283529160200191610e59565b820191906000526020600020905b815481529060010190602001808311610e3c57829003601f168201915b505050505090806001018054610e6e90611b95565b80601f0160208091040260200160405190810160405280929190818152602001828054610e9a90611b95565b8015610ee75780601f10610ebc57610100808354040283529160200191610ee7565b820191906000526020600020905b815481529060010190602001808311610eca57829003601f168201915b50505050600283015460039093015491929160ff8116915061010090046001600160a01b031685565b60026020528160005260406000208181548110610f2c57600080fd5b60009182526020909120600590910201805460018201546002830154600384015460048501805494975060ff909316955090936001600160a01b0390911692909190610f7790611b95565b80601f0160208091040260200160405190810160405280929190818152602001828054610fa390611b95565b8015610ff05780601f10610fc557610100808354040283529160200191610ff0565b820191906000526020600020905b815481529060010190602001808311610fd357829003601f168201915b5050505050905085565b6004546001600160a01b031633146110245760405162461bcd60e51b815260040161045c90611bcf565b6001600160a01b03831660009081526020819052604090206005015460ff1661105f5760405162461bcd60e51b815260040161045c90611c20565b6001600160a01b0383166000908152600160208181526040808420815160a08101835287815280840187905242928101929092526060820185905260808201859052805493840181558452922082516004909202019081906110c19082611c9e565b50602082015160018201906110d69082611c9e565b5060408281015160028301556060830151600390920180546080909401516001600160a81b0319909416921515610100600160a81b031916929092176101006001600160a01b03948516021790915551908416907f729590c175b0448c3b6ab56cc77b9b294f28159f2d48f952e10b5cb0d3ef474c906104a290859085904290611dbc565b6004546001600160a01b031633146111855760405162461bcd60e51b815260040161045c90611bcf565b6001600160a01b03821660009081526020819052604090206005015460ff16156111f15760405162461bcd60e51b815260206004820152601960248201527f4661726d657220616c7265616479207265676973746572656400000000000000604482015260640161045c565b6001600160a01b0382166112395760405162461bcd60e51b815260206004820152600f60248201526e496e76616c6964206164647265737360881b604482015260640161045c565b6040805160e0810182526001600160a01b03848116808352602080840186815260008587018190526060860181905260808601819052600160a087018190524260c088015293815291829052949020835181546001600160a01b0319169316929092178255925191929091908201906112b29082611c9e565b506040828101516002830155606083015160038301556080830151600483015560a083015160058301805460ff191691151591909117905560c090920151600690910155516001600160a01b038316907f9e6c0ba7b243f2832f486b0f05ab87adc71f805a3ed13de7d41274c0fd9e2201906113319084904290611df2565b60405180910390a25050565b6004546001600160a01b031633146113675760405162461bcd60e51b815260040161045c90611bcf565b6001600160a01b03821660009081526020819052604090206005015460ff166113a25760405162461bcd60e51b815260040161045c90611c20565b60648111156113f35760405162461bcd60e51b815260206004820152601f60248201527f53636f7265206d757374206265206265747765656e203020616e642031303000604482015260640161045c565b6001600160a01b03821660008181526020818152604091829020600201805490859055825181815291820185905242928201929092529091907fc2fd17ad7e9f23b8607f0bd02d7a6cdcccd5a964fa99ce5a066ed34c5b4bb55b906060016104a2565b6004546001600160a01b031633146114805760405162461bcd60e51b815260040161045c90611bcf565b6001600160a01b03821660009081526020819052604090206005015460ff166114bb5760405162461bcd60e51b815260040161045c90611c20565b6001600160a01b0382166000908152600360209081526040822080546001810182559083529120016114ed8282611c9e565b506001600160a01b038216600090815260208190526040812060040180549161151583611d74565b90915550506001600160a01b038216600090815260208190526040812060020154906005906115448284611d8d565b90506064811115611553575060645b6001600160a01b03851660008181526020819052604090819020600201839055517f649caf6a8c6555905a94f35b8134fd5f76d35da8ce4154d0952453b7350e6ca6906115a39087904290611df2565b60405180910390a25050505050565b80356001600160a01b03811681146115c957600080fd5b919050565b6000602082840312156115e057600080fd5b6115e9826115b2565b9392505050565b6000815180845260005b81811015611616576020818501810151868301820152016115fa565b506000602082860101526020601f19601f83011685010191505092915050565b60006020808301818452808551808352604092508286019150828160051b87010184880160005b838110156116c857888303603f190185528151805184528781015115158885015286810151878501526060808201516001600160a01b03169085015260809081015160a0918501829052906116b4818601836115f0565b96890196945050509086019060010161165d565b509098975050505050505050565b634e487b7160e01b600052604160045260246000fd5b600082601f8301126116fd57600080fd5b813567ffffffffffffffff80821115611718576117186116d6565b604051601f8301601f19908116603f01168101908282118183101715611740576117406116d6565b8160405283815286602085880101111561175957600080fd5b836020870160208301376000602085830101528094505050505092915050565b60008060006060848603121561178e57600080fd5b611797846115b2565b925060208401359150604084013567ffffffffffffffff8111156117ba57600080fd5b6117c6868287016116ec565b9150509250925092565b6000602080830181845280855180835260408601915060408160051b870101925083870160005b8281101561182557603f198886030184526118138583516115f0565b945092850192908501906001016117f7565b5092979650505050505050565b6000806000806080858703121561184857600080fd5b611851856115b2565b9350602085013592506040850135801515811461186d57600080fd5b9150606085013567ffffffffffffffff81111561188957600080fd5b611895878288016116ec565b91505092959194509250565b60006020808301818452808551808352604092508286019150828160051b87010184880160005b838110156116c857603f19898403018552815160a081518186526118ee828701826115f0565b915050888201518582038a87015261190682826115f0565b838a0151878b01526060808501511515908801526080938401516001600160a01b03169390960192909252505093860193908601906001016118c8565b6000806040838503121561195657600080fd5b61195f836115b2565b946020939093013593505050565b6020815260006115e960208301846115f0565b6001600160a01b038816815260e0602082018190526000906119a4908301896115f0565b60408301979097525060608101949094526080840192909252151560a083015260c09091015292915050565b606080825284516001600160a01b031690820152602084015160e06080830152600090611a016101408401826115f0565b9050604086015160a0840152606086015160c0840152608086015160e084015260a0860151151561010084015260c086015161012084015280915050836020830152826040830152949350505050565b60a081526000611a6460a08301886115f0565b8281036020840152611a7681886115f0565b6040840196909652505091151560608301526001600160a01b031660809091015292915050565b858152841515602082015283604082015260018060a01b038316606082015260a060808201526000611ad260a08301846115f0565b979650505050505050565b600080600060608486031215611af257600080fd5b611afb846115b2565b9250602084013567ffffffffffffffff80821115611b1857600080fd5b611b24878388016116ec565b93506040860135915080821115611b3a57600080fd5b506117c6868287016116ec565b60008060408385031215611b5a57600080fd5b611b63836115b2565b9150602083013567ffffffffffffffff811115611b7f57600080fd5b611b8b858286016116ec565b9150509250929050565b600181811c90821680611ba957607f821691505b602082108103611bc957634e487b7160e01b600052602260045260246000fd5b50919050565b6020808252600e908201526d139bdd08185d5d1a1bdc9a5e995960921b604082015260600190565b838152606060208201526000611c1060608301856115f0565b9050826040830152949350505050565b60208082526015908201527411985c9b595c881b9bdd081c9959da5cdd195c9959605a1b604082015260600190565b601f821115611c9957600081815260208120601f850160051c81016020861015611c765750805b601f850160051c820191505b81811015611c9557828155600101611c82565b5050505b505050565b815167ffffffffffffffff811115611cb857611cb86116d6565b611ccc81611cc68454611b95565b84611c4f565b602080601f831160018114611d015760008415611ce95750858301515b600019600386901b1c1916600185901b178555611c95565b600085815260208120601f198616915b82811015611d3057888601518255948401946001909101908401611d11565b5085821015611d4e5787850151600019600388901b60f8161c191681555b5050505050600190811b01905550565b634e487b7160e01b600052601160045260246000fd5b600060018201611d8657611d86611d5e565b5060010190565b80820180821115611da057611da0611d5e565b92915050565b634e487b7160e01b600052603260045260246000fd5b606081526000611dcf60608301866115f0565b8281036020840152611de181866115f0565b915050826040830152949350505050565b604081526000611e0560408301856115f0565b9050826020830152939250505056fea2646970667358221220cb8d98a48f532da3416282bcda3b1a1ea54e745d69d10f91c8ca04c74a62004b64736f6c63430008140033",
  "linkReferences": {},
  "deployedLinkReferences": {}
}